:100000000C94E2020C9401060C94DA050C940A0399
:100010000C940A030C940A030C940A030C940A032C
:100020000C940A030C940A030C940A030C940A031C
:100030000C940A030C940A030C940A030C940A030C
:100040000C9490050C940A030C944E060C9428060C
:100050000C940A030C940A030C940A030C940A03EC
:100060000C947F120C940A03000000002400270067
:100070002A0000000000250028002B0000000000DE
:1000800023002600290004040404040404040202DA
:100090000202020203030303030301020408102007
:1000A0004080010204081020010204081020000012
:1000B0000008000201000003040700000000000027
:1000C000000000000000003E5B4F5B3E3E6B4F6B4C
:1000D0003E1C3E7C3E1C183C7E3C181C577D571C29
:1000E0001C5E7F5E1C00183C1800FFE7C3E7FF00A2
:1000F00018241800FFE7DBE7FF30483A060E2629F0
:10010000792926407F050507407F05253F5A3CE7B2
:100110003C5A7F3E1C1C08081C1C3E7F14227F2278
:10012000145F5F005F5F06097F017F006689956A43
:10013000606060606094A2FFA29408047E040810CE
:10014000207E201008082A1C08081C2A08081E10F7
:100150001010100C1E0C1E0C30383E3830060E3EAF
:100160000E06000000000000005F0000000700070E
:1001700000147F147F14242A7F2A12231308646238
:1001800036495620500008070300001C2241000099
:1001900041221C002A1C7F1C2A08083E08080080F7
:1001A000703000080808080800006060002010088F
:1001B00004023E5149453E00427F40007249494990
:1001C000462141494D331814127F102745454539C2
:1001D0003C4A4949314121110907364949493646C6
:1001E0004949291E000014000000403400000008A6
:1001F0001422411414141414004122140802015949
:1002000009063E415D594E7C1211127C7F494949D5
:10021000363E414141227F4141413E7F494949416A
:100220007F090909013E414151737F0808087F0099
:10023000417F41002040413F017F081422417F401F
:100240004040407F021C027F7F0408107F3E4141F6
:10025000413E7F090909063E4151215E7F09192966
:1002600046264949493203017F01033F4040403F50
:100270001F2040201F3F4038403F63140814630391
:10028000047804036159494D43007F414141020410
:10029000081020004141417F040201020440404017
:1002A0004040000307080020545478407F2844440D
:1002B000383844444428384444287F385454541827
:1002C00000087E090218A4A49C787F080404780022
:1002D000447D40002040403D007F10284400004104
:1002E0007F40007C047804787C0804047838444417
:1002F0004438FC1824241818242418FC7C0804040E
:1003000008485454542404043F44243C4040207C76
:100310001C2040201C3C4030403C44281028444CC9
:100320009090907C4464544C440008364100000096
:10033000770000004136080002010204023C262337
:10034000263C1EA1A161123A4040207A38545455EF
:1003500059215555794122545478422155547840B9
:1003600020545579400C1E52721239555555593941
:100370005454545939555454580000457C41000296
:10038000457D420001457C407D1211127DF02825FB
:1003900028F07C545545002054547C547C0A097F35
:1003A0004932494949323A4444443A324A48483049
:1003B0003A4141217A3A42402078009DA0A07D3DFB
:1003C0004242423D3D4040403D3C24FF2424487E83
:1003D0004943662B2FFC2F2BFF0929F620C0887E6E
:1003E000090320545479410000447D413048484A73
:1003F00032384040227A007A0A0A727D0D19317D26
:100400002629292F28262929292630484D402038F9
:100410000808080808080808382F10C8ACBA2F10B8
:100420002834FA00007B000008142A142222142A1F
:1004300014085500550055AA55AA55AAFF55FF5551
:10044000FF000000FF00101010FF00141414FF0044
:100450001010FF00FF1010F010F0141414FC001422
:1004600014F700FF0000FF00FF1414F404FC141440
:1004700017101F10101F101F1414141F001010103D
:10048000F0000000001F101010101F10101010F0CE
:1004900010000000FF101010101010101010FF10AE
:1004A000000000FF140000FF00FF00001F101700F5
:1004B00000FC04F414141710171414F404F40000CE
:1004C000FF00F714141414141414F700F714141480
:1004D000171410101F101F141414F4141010F0101F
:1004E000F000001F101F0000001F14000000FC148B
:1004F0000000F010F01010FF10FF141414FF14107F
:1005000010101F00000000F010FFFFFFFFFFF0F0D1
:10051000F0F0F0FFFFFF0000000000FFFF0F0F0FE3
:100520000F0F3844443844FC4A4A4A347E020206DB
:1005300006027E027E0263554941633844443C040E
:10054000407E201E2006027E020299A5E7A5991C86
:100550002A492A1C4C7201724C304A4D4D303048A9
:10056000784830BC625A463D3E494949007E010107
:10057000017E2A2A2A2A2A44445F444440514A449C
:100580004040444A51400000FF0103E080FF00006A
:1005900008086B6B083612362436060F090F060062
:1005A0000018180000001010003040FF0101001F6B
:1005B00001011E00191D1712003C3C3C3C000000CC
:1005C0000000121711241FBECFEFD8E0DEBFCDBF51
:1005D00015E0A0E0B1E0E6ECF3E302C005900D9277
:1005E000AE3BB107D9F727E0AEEBB5E001C01D92F5
:1005F000A736B207E1F712E0C2EED2E004C02197BD
:10060000FE010E94D619C13ED107C9F70E94FC1312
:100610000C94E1190C9400000895CF92DF92EF92B0
:10062000FF920F931F93CF93DF936C017A018B019D
:10063000C0E0D0E0CE15DF0581F0D8016D918D01CD
:10064000D601ED91FC910190F081E02DC601099554
:10065000892B11F02196EECF7E01C701DF91CF915A
:100660001F910F91FF90EF90DF90CF900895089524
:10067000FC016370668B84819581268137816130AE
:1006800039F0633029F09187808733872287089576
:10069000318720879387828708956F927F928F9208
:1006A0009F92AF92BF92CF92DF92EF92FF920F9301
:1006B0001F93CF93DF93EC014B015A01690138017D
:1006C000E881F9810284F385E02D0995E881F981BB
:1006D0000288F389E02D87019601A501B401CE01BE
:1006E0000995A501460D571D41505109E881F98131
:1006F0000288F389E02D9601B401CE010995E881C5
:10070000F9810088F189E02D9301A501B401CE01A2
:100710000995C80CD91CB60161507109E881F981AD
:100720000088F189E02D9301A501CE010995E881AA
:10073000F9810688F789E02DCE01DF91CF911F91D5
:100740000F91FF90EF90DF90CF90BF90AF909F9070
:100750008F907F906F9009948F929F92AF92BF92EB
:10076000CF92DF92EF92FF920F931F93CF93DF937D
:100770004C016B015A01E901DC01ED91FC9162171A
:10078000730781F40417150724F48B2D5801042FE7
:10079000182F0A191B0998012F5F3F4F048CF58D04
:1007A000E02D12C04017510709F52617370724F42A
:1007B0008D2D6901C62FD82F9E012C193D092F5F61
:1007C0003F4F068CF78DE02D8701A501B601C401CE
:1007D0000995DF91CF911F910F91FF90EF90DF90DE
:1007E000CF90BF90AF909F908F9008950284F38533
:1007F000E02D0995D401ED91FC910488F589E02D57
:100800009E01A501B601C4010995D401ED91FC91A9
:100810000688F789E02DC401DF91CF911F910F91D8
:10082000FF90EF90DF90CF90BF90AF909F908F9010
:100830000994EF92FF920F931F93DC011A960D918A
:100840001C911B9718962D913C911997ED91FC9155
:1008500000A0F1A1E02D7B0140E050E060E070E0FD
:1008600009951F910F91FF90EF9008954F925F921D
:100870006F927F928F929F92AF92BF92CF92DF92B0
:10088000EF92FF920F931F93CF93DF936C012B0195
:100890005A0139014801DC01ED91FC910284F38594
:1008A000E02D0995E201640C751CD601ED91FC91D7
:1008B000C615D7055CF40088F189E02D8701940105
:1008C000A501BE01C60109952196EFCF0688F789DB
:1008D000E02DC601DF91CF911F910F91FF90EF9016
:1008E000DF90CF90BF90AF909F908F907F906F9050
:1008F0005F904F9009940E94DC198BE296E00E9471
:10090000430721E0892B09F420E0822F08958F927C
:100910009F92AF92CF92EF92FF920F931F93CF933C
:10092000DF93EC01262F898D9A8D009709F042C044
:100930006A3059F41D861C862D898E859F8538E086
:10094000239F800D911D112443C06D3009F4AAC06E
:100950008F898823C9F03C898C859D8546E0349F2A
:10096000800D911D1124488559854817590764F455
:100970001D861C863D898E859F8548E0349F800DAD
:10098000911D11249F878E87EA88FB880889198921
:100990004E855F856C857D85AD88CC88CE010E94B3
:1009A00086092C898C859D8536E0239F800D911DBD
:1009B00011243EC06A3079F41D861C862D89FC0105
:1009C0003696E4918E859F852E9F800D911D112472
:1009D0009F878E8767C06D3009F464C0FC01349630
:1009E0003491631708F45EC03196E491E61708F479
:1009F00059C0462F431B342FFC01329685909490AA
:100A000047E0349F800C911C1124F40132963491FC
:100A10003196E491332311F0E1110DC0F4013496C5
:100A2000E4912C898C859D85E29F800D911D112478
:100A30009D878C8737C0F401359644915F89552393
:100A400019F15C89E32FF0E0E40FF11D47FDFA9501
:100A50005E9FB0015F9F700D11244C855D85460F30
:100A6000571F688579856417750774F41D861C8681
:100A70003D89FC013696E4918E859F853E9F800DD1
:100A8000911D11249F878E87EA88FB880889198920
:100A90004E855F856C857D85AD88CC88CE010E94B2
:100AA0008609BCCF81E090E0DF91CF911F910F913B
:100AB000FF90EF90CF90AF909F908F9008953FB7A9
:100AC000F8948091DD059091DE05A091DF05B0914D
:100AD000E00526B5A89B05C02F3F19F00196A11D82
:100AE000B11D3FBFBA2FA92F982F8827820F911DC4
:100AF000A11DB11DBC01CD0142E0660F771F881F0B
:100B0000991F4A95D1F708952FB7F8946091D905A8
:100B10007091DA058091DB059091DC052FBF089577
:100B20001F920F920FB60F9211242F933F938F9322
:100B30009F93AF93BF938091D9059091DA05A091CF
:100B4000DB05B091DC053091D80523E0230F2D376C
:100B500020F40196A11DB11D05C026E8230F0296C1
:100B6000A11DB11D2093D8058093D9059093DA0576
:100B7000A093DB05B093DC058091DD059091DE0547
:100B8000A091DF05B091E0050196A11DB11D8093F4
:100B9000DD059093DE05A093DF05B093E005BF91DE
:100BA000AF919F918F913F912F910F900FBE0F901A
:100BB0001F9018951F920F920FB60F9211242F932A
:100BC0003F934F935F936F937F938F939F93AF93D5
:100BD000BF93EF93FF93E0910201F0910301099518
:100BE000FF91EF91BF91AF919F918F917F916F9105
:100BF0005F914F913F912F910F900FBE0F901F90DB
:100C000018951F920F920FB60F9211242F933F93B6
:100C10004F935F936F937F938F939F93AF93BF9304
:100C2000EF93FF93E0910001F09101010995FF918D
:100C3000EF91BF91AF919F918F917F916F915F9154
:100C40004F913F912F910F900FBE0F901F901895CD
:100C50001F920F920FB60F9211242F933F934F9331
:100C60005F936F937F938F939F93AF93BF93EF9314
:100C7000FF938BE296E00E94BA0BFF91EF91BF9138
:100C8000AF919F918F917F916F915F914F913F9124
:100C90002F910F900FBE0F901F9018951F920F92DB
:100CA0000FB60F9211242F938F939F93EF93FF937F
:100CB000E0913B06F0913C068081E0914106F09185
:100CC000420682FD12C09081809144068F5F8F732F
:100CD00020914506821751F0E0914406F0E0E55D71
:100CE000F94F958F8093440601C08081FF91EF9169
:100CF0009F918F912F910F900FBE0F901F9018957D
:100D000030912A06313208F04BC0809107068111DC
:100D1000FCCF9091030722E02093070621E0209367
:100D200006062FEF20930506109204063093030663
:100D3000EAE0F6E0A3EEB5E020E0321721F04191C1
:100D40004D932F5FFACF1092E2052091E205990FA3
:100D5000922B9093E2059091E105913061F410920D
:100D6000E1059091E2059093BB009091BC0093FD4A
:100D7000F8CF95EC01C095EE9093BC0090910706DA
:100D80009230E1F3909105069F3F79F0809105063E
:100D9000803241F080910506803331F084E005C057
:100DA00081E003C082E001C083E010920906109246
:100DB0002A061092080608959091F606992339F0B4
:100DC0008EBD00000DB407FEFDCF8EB5089528E05E
:100DD00030E040E8E091F906F091FA0650819091F8
:100DE0000007909595239083E091F706F091F8061F
:100DF0009091FF06582F542319F05081952B03C072
:100E00005081909595239083E091F906F091FA0630
:100E1000508190910007952B908346952150310980
:100E2000C9F60895FC01538D448D252F30E0842FA1
:100E300090E0821B930B541710F0CF960895019702
:100E40000895FC01918D828D981761F0828DDF01EC
:100E5000A80FB11D5D968C91928D9F5F9F73928FAD
:100E600090E008958FEF9FEF0895FC01918D828DA2
:100E7000981731F0828DE80FF11D858D90E008956F
:100E80008FEF9FEF0895FC01918D228D892F90E0C7
:100E9000805C9F4F821B91098F739927089580E092
:100EA00090E0892B29F00E947D0481110C940000B0
:100EB0000895833081F028F4813099F08230A1F0D8
:100EC00008958730A9F08830B9F08430D1F480914A
:100ED00080008F7D03C0809180008F778093800099
:100EE000089584B58F7702C084B58F7D84BD089541
:100EF0008091B0008F7703C08091B0008F7D809388
:100F0000B0000895CF93C82F8091F1068F3F59F11B
:100F1000E091FB06F091FC06908180910107892BFE
:100F20008083E091FD06F091FE069081809102079A
:100F3000809589238083E091FB06F091FC069081E7
:100F4000809101078095892380838C2F0E94DC0685
:100F5000E091FB06F091FC06908180910107892BBE
:100F60008083CF9108958091EF0691E090930806D9
:100F7000809303071092090610922A0660E088EC1D
:100F800096E00E944C126C2F88EC96E00E944C1266
:100F9000CF910C948006BF92CF92DF92EF92FF9296
:100FA0000F931F93CF93DF9381E20E94820780E02B
:100FB0000E9482078FE70E94820782E20E948207D6
:100FC00080E00E94820787E00E9482078091F106FC
:100FD0008F3F81F1E091FB06F091FC0690818091BA
:100FE0000107892B8083E091FD06F091FE06908138
:100FF00080910207892B8083E091FB06F091FC062B
:10100000908180910107809589238083C4E0D1E09D
:1010100004E015E089910E94DC060C171D07D1F74A
:10102000E091FB06F091FC06908180910107892BED
:1010300080832FC00091B8008CE08093B800C4E09A
:10104000D1E084E0C82E85E0D82EBB24B3948091F3
:10105000EF06B092080680930307109209061092DB
:101060002A0660E488EC96E00E944C127E0110E1B2
:10107000F70161917F0188EC96E00E944C121150BB
:10108000B9F70E9480066096CC16DD0601F7009342
:10109000B800DF91CF911F910F91FF90EF90DF90FB
:1010A000CF90BF900895009769F0FC010190002057
:1010B000E9F73197AF01481B590BBC0184ED96E06D
:1010C0000C940D0380E090E008952F923F924F9290
:1010D0005F926F927F928F929F92AF92BF92CF92C8
:1010E000DF92EF92FF920F931F93CF93DF93CDB7D1
:1010F000DEB7A4970FB6F894DEBF0FBECDBF4B018D
:101100005C01F42E9B01AC010E94AF19882319F0F9
:1011100082EB95E027C024013501E89477F82FEFA2
:101120003FEF4FE75FE7C301B2010E94AF198111A2
:101130000DC02FEF3FEF4FE75FE7C301B2010E9401
:10114000E51718161CF486EB95E00CC02FEF3FEF67
:101150004FE75FE4C501B4010E943D1918162CF455
:101160008AEB95E00E945308B8C02FEF3FEF4FE79E
:101170005FECC501B4010E94E51787FDF1CF20E0C7
:1011800030E0A901C501B4010E94E51787FF0BC03B
:101190006DE284ED96E00E9487043C01B7FAB094BA
:1011A000B7F8B09402C0612C712C10E060E070E0E0
:1011B00080E09FE3F11641F020E030E040E251E4AE
:1011C0000E94EA171F5FF6CFA50194010E947917CC
:1011D0004B015C010E945C186AA3C72ED82EE92E31
:1011E00019A2262F372F482F592F8E010F5D1F4F21
:1011F0000BA31CA39AE0292E312C412C512CCA019F
:10120000B901A20191010E94B419605DF8016293D5
:101210008F01211531054105510589F7CF010E9444
:1012200053088301080F191FFF2009F455C06AA154
:101230007C2D8D2D9E2D0E948B189B01AC01C5012C
:10124000B4010E9478174B015C016EE284ED96E0D8
:101250000E948704080F191F8AE0282E312C412C88
:10126000512C20E030E040E251E4C501B4010E947D
:1012700042194B015C010E945C189B0140E050E068
:1012800019A2CBA0DCA0762E3AA3642EE52ECA01CB
:10129000B901A20191010E94B419605DF601629347
:1012A0006F01211531054105510589F7CF010E94D4
:1012B0005308080F191F672D7AA1862D9E2D0E94B5
:1012C0008B189B01AC01C501B4010E9478174B013A
:1012D0005C01FA94F110C5CFC801A4960FB6F8943A
:1012E000DEBF0FBECDBFDF91CF911F910F91FF9059
:1012F000EF90DF90CF90BF90AF909F908F907F90B6
:101300006F905F904F903F902F9008952F923F9253
:101310004F925F926F927F928F929F92AF92BF9205
:10132000CF92DF92EF92FF920F931F93CF93DF93B1
:10133000CDB7DEB76B970FB6F894DEBF0FBECDBF4B
:101340009B8F8A8F1B014A01D22E1987088737018C
:10135000A982DC0159962D913C915A9721153105AE
:1013600009F0FFC018968D919C911997681779071D
:101370000CF0E7C11A968D919C911B97481759075D
:101380000CF0DFC1EC2DF0E0FB83EA839B0146E02B
:10139000C49E200D311D11243D872C871216130683
:1013A0000CF0CFC16A2D70E07B876A8783E0660FFF
:1013B000771F8A95E1F77F876E87CB01880D991D8E
:1013C000181619060CF0BDC158968C91811104C0F5
:1013D0008FEA8D1508F4D394AA8DBB8DED91FC9105
:1013E00011970284F385E02DCD010995B5E0DB9ED0
:1013F000C0011124EC2DF0E0F98BE88B91012B5FFB
:101400003F4F3B8B2A8B3D822C822101AC0142193C
:1014100053095D8B4C8B7981672F70E07F8B6E8BCE
:10142000C4010896998F888FEC89FD89E40DF51D1C
:10143000EE53FF4FD49054019F828E82D0FE16C08F
:10144000AA8DBB8DED91FC91B1E0CB1209C0298131
:10145000213031F40484F585E02D2885398519C0C3
:101460000684F785E02DE884F9841DC048855985F8
:101470004615570519F1AA8DBB8DED91FC91B1E090
:10148000CB120DC02981213051F40484F585E02D63
:101490009301A501B2018A8D9B8D09950FC0068429
:1014A000F785E02D73010A851B852A813B814E81DA
:1014B0005F816C817D818A8D9B8D0995D6943FEFEC
:1014C000A31AB30A4E815F816E897F89460F571F29
:1014D0005F834E83888D998DA816B90609F0AECF2B
:1014E0009FEF491A590AAC81BD81E889F989AE0F8D
:1014F000BF1FBD83AC832A893B894216530609F07E
:1015000093CF488559854615570509F4F8C0AA8D2B
:10151000BB8DED91FC91B1E0CB1211C0298121303E
:1015200071F4B1016B5F7F4F0088F189E02D830179
:1015300028E030E0A4018A8D9B8D0995E0C06C8580
:101540007D854A815B81641B750B0684F785E02DE0
:1015500073010E851F859A01A4018A8D9B8D0995C3
:10156000CEC0F9013496E491DE1AF90132968591E4
:101570009491B7E0DB9E800D911D1124F901259116
:1015800034913B8B2A8BFC01259134915901FC014C
:1015900032965490319634913C87329674903196BD
:1015A000149141E04C1518F05981523068F0672DC4
:1015B000072C000C770B7D836C83812F012E000C90
:1015C000990B9B838A8304C01B821A821D821C8212
:1015D000AA8DBB8DED91FC9111970284F385E02DCE
:1015E000CD010995412CD12C612CF981EF2FF0E030
:1015F000FF83EE832C2D30E03B872A87A401410F27
:10160000511D17FD5A955F8B4E8BB101670D711DF2
:1016100077FC7A95798F688F7C85671608F06FC0A4
:10162000262D30E04A815B81420F531FAE81BF817E
:10163000A49FC001A59F900DB49F900D1124F401AB
:10164000E80FF91FF98BE88B842D712C4E895F8987
:10165000420F531F5D8B4C8B751408F04DC051E049
:10166000580F5E87877041F4C5010196EA89FB89AE
:10167000EA0DFB1DD4905C01D7FE3AC061E0C612B2
:1016800016C07981713099F4AA8DBB8DED91FC91D2
:1016900011970484F585E02D288539854C895D896D
:1016A000688D798D670D711DCD01099521C08C81E3
:1016B0009D81870D911DEA85FB858E9FB0018F9FCF
:1016C000700D9E9F700D1124620D731DAA8DBB8D30
:1016D000ED91FC9111970684F785E02DE884F9845B
:1016E0000E811F812A853B8548895989CD0109953D
:1016F000DD0C73948E85B0CF450C63948DCFAA8D8D
:10170000BB8DED91FC9111970688F789E02DCD01F5
:101710006B960FB6F894DEBF0FBECDBFDF91CF91B1
:101720001F910F91FF90EF90DF90CF90BF90AF90FF
:101730009F908F907F906F905F904F903F902F90F1
:1017400009946B960FB6F894DEBF0FBECDBFDF9144
:10175000CF911F910F91FF90EF90DF90CF90BF90AE
:10176000AF909F908F907F906F905F904F903F9041
:101770002F900895FC01848DDF01A80FB11DA35A9D
:10178000BF4F2C91848D90E001968F739927848FA1
:10179000A689B7892C93A089B1898C9183708064C4
:1017A0008C93938D848D981306C00288F389E02D65
:1017B00080818F7D80830895EF92FF920F931F9316
:1017C000CF93DF93EC0181E0888F9B8D8C8D9813F4
:1017D00005C0E889F989808185FD26C0F62E0B8D2C
:1017E00010E00F5F1F4F0F731127E02E8C8DE81252
:1017F0000CC00FB607FCFACFE889F989808185FF14
:10180000F5CFCE010E94BA0BF1CF8B8DFE01E80F10
:10181000F11DE35AFF4FF0829FB7F8940B8FEA89CE
:10182000FB89808180620AC09FB7F894EE89FF89A6
:101830006083E889F98980818370806480839FBF99
:1018400081E090E0DF91CF911F910F91FF90EF9099
:101850000895CF93DF93EC01888D8823C9F0EA893E
:10186000FB89808185FD05C0A889B9898C9186FD99
:101870000FC00FB607FCF5CF808185FFF2CFA88996
:10188000B9898C9185FFEDCFCE010E94BA0BE7CFCD
:10189000DF91CF910895CF93DF93282F30E0F901A6
:1018A000E255FF4F8491F901E656FF4FD491F901BB
:1018B000EA57FF4FC491CC2391F081110E94590740
:1018C000EC2FF0E0EE0FFF1FE458FF4FA591B4910D
:1018D000EC91ED2381E090E021F480E002C080E013
:1018E00090E0DF91CF9108951F93CF93DF93282F3E
:1018F00030E0F901E255FF4F8491F901E656FF4FC0
:10190000D491F901EA57FF4FC491CC23C1F0162FAF
:1019100081110E945907EC2FF0E0EE0FFF1FEE58E7
:10192000FF4FA591B4919FB7F894111104C08C9109
:10193000D095D82302C0EC91DE2BDC939FBFDF91C2
:10194000CF911F910895CF93DF9390E0FC01E6566D
:10195000FF4F2491FC01EA57FF4F8491882361F1E6
:1019600090E0880F991FFC01E859FF4FC591D49171
:10197000FC01EE58FF4FA591B491611109C09FB7CA
:10198000F8948881209582238883EC912E230BC0C4
:10199000623061F49FB7F8948881322F30958323A9
:1019A0008883EC912E2B2C939FBF06C08FB7F894A1
:1019B000E8812E2B28838FBFDF91CF9108958F92DE
:1019C0009F92AF92BF92CF92DF92EF92FF926B0104
:1019D0007C010E945F054B015C01C114D104E1044C
:1019E000F104F1F00E945F05DC01CB01881999092F
:1019F000AA09BB09883E9340A105B10570F321E017
:101A0000C21AD108E108F10888EE880E83E0981E1A
:101A1000A11CB11CC114D104E104F10419F7DDCFFC
:101A2000FF90EF90DF90CF90BF90AF909F908F90FE
:101A300008958F929F92AF92BF92CF92DF92EF92D2
:101A4000FF920F931F93CF93DF93EC015B014A0149
:101A50006901E881F9810284F385E02D09959501FA
:101A60002C0D3D1D21503109E881F9810488F5894B
:101A7000E02D78018401A401B501CE010995E8812A
:101A8000F9810688F789E02DCE01DF91CF911F9172
:101A90000F91FF90EF90DF90CF90BF90AF909F900D
:101AA0008F9009948F929F92AF92BF92CF92DF92C4
:101AB000EF92FF920F931F93CF93DF93EC015B01A3
:101AC0004A0169017801E881F9810284F385E02DFA
:101AD0000995C80CD91C860101501109E881F981CA
:101AE0000488F589E02D9501A401B501CE01099581
:101AF000E881F9810688F789E02DCE01DF91CF9149
:101B00001F910F91FF90EF90DF90CF90BF90AF901B
:101B10009F908F9009940895EF92FF920F931F93D7
:101B2000DC01ED91FC9100A0F1A1E02D09951F9140
:101B30000F91FF90EF9008950F931F93DC01ED91AB
:101B4000FC91068CF78DE02D09951F910F9108955A
:101B50000F931F93DC01ED91FC91048CF58DE02D2A
:101B600009951F910F910895DC01ED91FC9100847E
:101B7000F185E02D09942F923F924F925F926F92E0
:101B80007F928F929F92AF92BF92CF92DF92EF920D
:101B9000FF920F931F93CF93DF9300D000D000D01C
:101BA000CDB7DEB72C017E836D836A015901C80170
:101BB000FC82EB824801841A950A97FE03C0919437
:101BC0008194910835012D813E81621A730A77FE56
:101BD00003C0719461947108681479045CF43A2D1F
:101BE0002B2D5C01832F922F3D812E81DE82CD82B1
:101BF000C32ED22EAD81BE81AA16BB065CF43C2D4D
:101C00002D2D6C01832F922F3D812E81BE82AD82BE
:101C1000A32EB22E85012D813E81021B130B1C01C8
:101C20002C183D0837FE03C0319421943108780107
:101C300017FF03C03FEFE31AF30AF594E794C816C1
:101C4000D9062CF08FEF9FEF9A83898304C0A1E01F
:101C5000B0E0BA83A9832D813E81A216B30624F198
:101C6000D201ED91FC910484F585E02D2B813C811E
:101C70006814790424F44D815E81B60103C0A60185
:101C80006D817E81C2010995E218F308F7FE06C056
:101C900029813A81C20ED31EE00EF11E8D819E81F4
:101CA00001969E838D83D7CF26960FB6F894DEBF1C
:101CB0000FBECDBFDF91CF911F910F91FF90EF909D
:101CC000DF90CF90BF90AF909F908F907F906F905C
:101CD0005F904F903F902F9008950F931F93CF9355
:101CE000DF93DC0156968C915697823071F08330E9
:101CF00009F1813009F08CC01496ED91FC91159793
:101D0000E41BF50BE21BF30B20C01496ED91FC9144
:101D10001597CF01861B970BBC0161507109169670
:101D2000ED91FC911797CF01841B950BAC01421BE1
:101D3000530B6EC01696ED91FC911797CF01861B41
:101D4000970BBC0161507109FA0177FD1BC1169612
:101D50008D919C911797681779070CF013C1F7FFC5
:101D600004C02E0F3F1FE0E0F0E014968D919C918F
:101D70001597AF01420F531F841795071CF49C0160
:101D80002E1B3F0B121613060CF0FCC0CB0177FD87
:101D9000079643E0959587954A95E1F79695982F94
:101DA000882797958795E80FF91FEC5FFE4F6770BE
:101DB000772781E090E001C0880F6A95EAF7482F05
:101DC0000130110541F088F00230110509F0DAC048
:101DD0002E0F3F1F15C02E0F3F1FE217F30709F408
:101DE000D1C08081842B8193F8CF80952E0F3F1F27
:101DF000E217F30709F4C6C0908198239193F8CFB6
:101E0000E217F30709F4BEC0808184278193F8CFDD
:101E100077FDB8C014968D919C9115976817790736
:101E20000CF0B0C057FF04C0240F351F40E050E055
:101E300016968D919C911797FA01E20FF31F8E175A
:101E40009F071CF49C01241B350B121613060CF083
:101E500099C0A22F842F86958695869590E8899FB4
:101E6000600D711D1124FB01EC5FFE4F4770A9F15D
:101E700098E0941B492F50E0EA01C45ADA4F888158
:101E8000291790F4421B51092FEF30E002C035951D
:101E900027954A95E2F782230130110541F068F059
:101EA0000230110589F06EC00130110519F420814E
:101EB000822B0CC00130110520F4809520818223F3
:101EC00005C00230110531F4208182278083A917D3
:101ED00008F458C0A91BE058FF4FA83048F1023061
:101EE000110559F4EF018A2F988190959883C05875
:101EF000DF4F88508830C0F730C081E001301105D5
:101F000009F080E08195EF019A2F8883C058DF4F58
:101F100098509830D0F788EF8A0F869586958695E9
:101F200090E8899FE00DF11D1124E058FF4FA77044
:101F3000AA2341F1B0E0AC5ABA4F8C91013011059F
:101F400029F038F002301105E9F419C09081892B8D
:101F500018C080959081892314C088EF8A0F8695D8
:101F60008695869590E8899FE00DF11D1124E05833
:101F7000FF4FA77039F0B0E0AC5ABA4F8C91908106
:101F800089278083DF91CF911F910F9108950F933F
:101F90001F93CF93DF93DC01FB0156968C915697EC
:101FA000823089F0833021F1813009F0E7C0149646
:101FB0008D919C911597BC01641B750BAB01415031
:101FC0005109BF011DC014966D917C911597CB01ED
:101FD0008E1B9F0BFC0116968D919C911797BC014F
:101FE000641B750BAB0141505109E21BF30BC6C0DA
:101FF00016966D917C9117976E1B7F0B621B730B6E
:1020000057FD1BC114968D919C9115974817590740
:102010000CF013C177FF04C0260F371F60E070E09B
:1020200016968D919C911797FB01E20FF31F8E1767
:102030009F071CF49C01261B370B121613060CF08D
:10204000FCC0A22F862F86958695869590E8899F5D
:10205000400D511D1124FA01EC5FFE4F6770A9F18C
:1020600098E0961B492F50E0EA01C45ADA4F888164
:10207000291790F4421B51092FEF30E002C035952B
:1020800027954A95E2F782230130110541F068F067
:102090000230110589F0D1C00130110519F42081F9
:1020A000822B0CC00130110520F480952081822301
:1020B00005C00230110531F4208182278083A917E1
:1020C00008F4BBC0A91BE058FF4FA83048F102300C
:1020D000110559F4EF018A2F988190959883C05883
:1020E000DF4F88508830C0F733C081E001301105E0
:1020F00009F080E08195EF019A2F8883C058DF4F67
:1021000098509830D0F788EF8A0F869586958695F7
:1021100060E8869FE00DF11D1124E058FF4FA77085
:10212000AA2309F48AC0B0E0AC5ABA4F8C910130AE
:10213000110531F040F00230110509F07EC01BC0DE
:102140009081892B03C0809590818923808375C0FD
:1021500088EF8A0F86958695869570E8879FE00DB3
:10216000F11D1124E058FF4FA77009F466C0B0E0DC
:10217000AC5ABA4F8C9190818927E8CF57FD5DC04A
:1021800016968D919C911797481759070CF055C0DA
:10219000F7FF04C02E0F3F1FE0E0F0E014968D9192
:1021A0009C911597BF01620F731F861797071CF448
:1021B0009C012E1B3F0B121613060CF03EC0CA01E9
:1021C00057FD079663E0959587956A95E1F7969593
:1021D000982F882797958795E80FF91FEC5FFE4F9A
:1021E0004770552781E090E001C0880F4A95EAF7D3
:1021F000482F0130110539F078F002301105E9F46B
:102200002E0F3F1F13C02E0F3F1FE217F307A9F039
:102210008081842B8193F9CF80952E0F3F1FE21789
:10222000F30759F0908198239193F9CFE217F307C0
:1022300021F0808184278193F9CFDF91CF911F9185
:102240000F910895FC0177FD9AC0808591856817EC
:1022500079070CF094C057FD92C08285938548178A
:1022600059070CF08CC08689823009F07CC08481CB
:102270009581DC01A61BB70BBD01615071098681F8
:102280009781FC01E41BF50BAF01415051090AC0D5
:10229000813041F484819581841B950BAB01BC0195
:1022A000615071092130310529F008F122303105E2
:1022B000E1F10895FA0157FD3796A3E0F595E7950A
:1022C000AA95E1F7F695FE2FEE27F795E7956E0FA5
:1022D0007F1FFB01EC5FFE4F4770552781E090E0C8
:1022E00001C0880F4A95EAF79081892B3AC0FA011C
:1022F00057FD379623E0F595E7952A95E1F7F69592
:10230000FE2FEE27F795E7956E0F7F1FFB01EC5F21
:10231000FE4F4770552781E090E001C0880F4A9535
:10232000EAF78095908189231CC0FA0157FD379602
:1023300083E0F595E7958A95E1F7F695FE2FEE2770
:10234000F795E7956E0F7F1FFB01EC5FFE4F47701F
:10235000552781E090E001C0880F4A95EAF7908107
:10236000892780830895833009F092CF86819781F1
:10237000861B970BBA01AC014150510993CF0895C8
:1023800085ED8093BC008091BC0084FDFCCF109251
:102390000706089540914407262F30E0240F311D91
:1023A00021323105DCF4209107062430C9F4FC0108
:1023B00080E090E0861758F4309144072191DC01C9
:1023C000AC5DB84FA30FB11D2C930196F3CF809154
:1023D0004407680F6093440780E0089581E0089502
:1023E00082E0089508950895E091C3058091C205A3
:1023F000E81730F4F0E0EC5FF84F808190E008954A
:102400008FEF9FEF08959091C3058091C2059817B3
:1024100050F4E92FF0E0EC5FF84F208130E09F5F4F
:102420009093C30502C02FEF3FEFC901089580913B
:10243000C20590E02091C305821B91090895CF92B7
:10244000DF92EF92FF920F931F93CF93DF937C0164
:10245000CB018A0120910806222389F0EB016B0150
:10246000C40ED51ECC15DD0569F06991D701ED913B
:10247000FC910190F081E02DC7010995F3CF642F05
:102480000E94CA11C801DF91CF911F910F91FF9057
:10249000EF90DF90CF900895CF93DF931F92CDB749
:1024A000DEB76983209108062223D1F020912A0605
:1024B000203240F021E030E0FC013383228380E0D1
:1024C00090E015C080910906E82FF0E0E65FF94F33
:1024D000998190838F5F8093090680932A0605C0B7
:1024E00061E0CE0101960E94CA1181E090E00F9058
:1024F000DF91CF910895089580E090E008951F92B4
:102500000F920FB60F9211242F933F934F935F9327
:102510006F937F938F939F93AF93BF93EF93FF93AB
:102520008091B900887F803609F49CC068F58832B4
:1025300009F45BC090F4803109F454C038F4882366
:1025400009F4F6C0883009F44DC0F6C0883109F4AA
:102550004CC0803209F45DC0EFC0803409F468C01B
:1025600048F4803309F455C0883309F0E5C08093FE
:102570000506D8C0803509F44FC0883509F45DC020
:10258000883409F0D9C0D6C0883909F4C7C0A8F486
:10259000883709F467C038F4883609F463C0803797
:1025A00009F460C0C9C0883809F4B8C0803909F49A
:1025B0005FC0803809F0C0C05BC0803B09F486C0B2
:1025C00038F4803A09F466C0883A09F47FC0B4C090
:1025D000803C09F4A7C0883C09F4A4C0883B09F4F6
:1025E0008AC0AAC08091E20510C090910406809133
:1025F0000306981770F5E091040681E08E0F809332
:102600000406F0E0ED51FA4F80818093BB0085EC29
:1026100086C0809305068EC0E091040681E08E0F8F
:10262000809304068091BB00F0E0ED51FA4F808367
:1026300090910406809103066EC0E091040681E04B
:102640008E0F809304068091BB00F0E0ED51FA4FAD
:1026500080838091060681116DC081E08093E10541
:1026600084EA61C083E08093070610926607CFCFAB
:1026700080916607803208F051C0E091660781E0E2
:102680008E0F809366078091BB00F0E0EA5BF84F05
:102690008083BDCF85EC8093BC00109207068091AB
:1026A0006607803230F4E0916607F0E0EA5BF84FAD
:1026B00010826091660770E0E091BE05F091BF0561
:1026C00086E497E009951092660736C084E080930F
:1026D00007061092450710924407E091C005F0915B
:1026E000C105099580914407811105C081E080935F
:1026F000440710922407E091450781E08E0F8093F4
:102700004507F0E0EC5DF84F80818093BB0090912D
:10271000450780914407981708F479CF85E880939E
:10272000BC000AC085EC8093BC001092070604C070
:10273000109205060E94C011FF91EF91BF91AF91D9
:102740009F918F917F916F915F914F913F912F91C9
:102750000F900FBE0F901F9018950F931F9382300C
:102760009105F9F48091CC058823D9F11092CC051C
:102770000E9484050091C8051091C9052091CA05E1
:102780003091CB05DC01CB01801B910BA20BB30B6D
:102790008093C4059093C505A093C605B093C70563
:1027A00020C00397F1F48091D5058823D1F01092D1
:1027B000D5050E9484050091D1051091D205209184
:1027C000D3053091D405DC01CB01801B910BA20B0A
:1027D000B30B8093CD059093CE05A093CF05B09316
:1027E000D0051F910F91089582E090E00C94AD13F5
:1027F00083E090E00C94AD13789484B5826084BD3E
:1028000084B5816084BD85B5826085BD85B58160F4
:1028100085BD80916E00816080936E001092810072
:10282000809181008260809381008091810081602D
:1028300080938100809180008160809380008091EE
:10284000B10084608093B1008091B000816080937A
:10285000B00080917A00846080937A0080917A0041
:10286000826080937A0080917A00816080937A0000
:1028700080917A00806880937A001092C10062E0B3
:1028800082E00E94A30C61E082E00E94740C62E08E
:1028900083E00E94A30C61E083E00E94740C62E07C
:1028A00087E00E94A30C61E087E00E94740C62E064
:1028B00088E00E94A30C61E088E00E94740CC1E0F3
:1028C000C093D7051092CD051092CE051092CF057A
:1028D0001092D0051092C4051092C5051092C6053D
:1028E0001092C7051092D5051092CC0561E08DE0DD
:1028F0000E94740C82E08093F0068CE38093EF06D4
:102900008091F1068F3F09F4BDC061E08091F3062C
:102910000E94A30C61E08091F5060E94A30C8091B7
:10292000F506082E000C990BFC01EA57FF4FE491C5
:10293000F0E0EE0FFF1FEE58FF4F259134913093DA
:10294000FC062093FB06FC01E656FF4FE491E09362
:1029500001078091F306082E000C990BFC01EA5741
:10296000FF4FE491F0E0EE0FFF1FEE58FF4F25916F
:1029700034913093FE062093FD06FC01E656FF4F8E
:10298000E491E09302078091F60681113EC061E078
:102990008091F1060E94A30C61E08091F2060E94F2
:1029A000A30C8091F206082E000C990BFC01EA574B
:1029B000FF4FE491F0E0EE0FFF1FEE58FF4F25911F
:1029C00034913093FA062093F906FC01E656FF4F46
:1029D000E491E09300078091F106082E000C990B1A
:1029E000FC01EA57FF4FE491F0E0EE0FFF1FEE58B5
:1029F000FF4F259134913093F8062093F706FC01A0
:102A0000E656FF4FE491E093FF068091F606882397
:102A100009F46AC0CFB7F8948091D605811127C018
:102A2000E0E9F0E08491E4EAF0E09491E82FF0E04E
:102A3000EE0FFF1FE859FF4FA591B491EC91E923E8
:102A400021F461E08AE00E94740C61E08AE00E9457
:102A5000A30C8CB580618CBD8CB580648CBD61E0AD
:102A60008DE00E94A30C61E08BE00E94A30C80919A
:102A7000D6058F5F8093D605CFBF80E58CBD81E002
:102A80008DBD32C01092C3051092C2051092090686
:102A900010922A0610920706C09306061092E105CE
:102AA00061E082E10E94740C61E083E10E94740C99
:102AB0008091B9008E7F8093B9008091B9008D7F9D
:102AC0008093B90088E48093B80085E48093BC00CB
:102AD00082EF91E19093C1058093C00583EF91E16E
:102AE0009093BF058093BE058091F40687FD1EC0BC
:102AF00061E00E94A30C61E08091F4060E94740CD6
:102B000061E070E080E090E00E94DF0C60E0809186
:102B1000F4060E94740C6AE070E080E090E00E948D
:102B2000DF0C61E08091F4060E94740C8EEA0E9432
:102B3000820785ED0E94820780E80E94820788EA6A
:102B40000E9482078FE30E94820783ED0E94820722
:102B500080E00E94820780E40E9482078DE80E9444
:102B6000820784E10E94820780E20E94820780E05F
:102B70000E94820781EA0E94820788EC0E948207F5
:102B80008AED0E94820782E10E94820781E80E940A
:102B900082078FEC0E94820789ED0E94820781EFF5
:102BA0000E9482078BED0E94820780E40E948207C8
:102BB00084EA0E94820786EA0E9482078EE20E94CF
:102BC00082078FEA0E94820781E08093E806809363
:102BD000E90681E090E09093E7068093E606909303
:102BE000E5068093E4061092E1061092E0068FE07D
:102BF00090E09093E3068093E2060E94CB0760ED9D
:102C000077E080E090E00E94DF0C80E094E0E4E078
:102C1000F1E0DF019C011D9221503040E1F710925C
:102C2000E1061092E00688E290E09093E30680933C
:102C3000E2060AE010E06CE271E080E090E00E94C1
:102C4000DF0C84E695E00E9453080E94CB070150F8
:102C5000110989F76CE271E080E090E00E94DF0CDE
:102C600088EF93E1909303018093020180916900C2
:102C7000837F886080936900E99A84EF93E1909361
:102C8000010180930001809169008C7F82608093B4
:102C90006900E89AC1E004E011E0E12C84E0F82E3C
:102CA0009FE0C92ED12C8091D7058823E9F088E0D8
:102CB0000E944B0C892BD9F31092D7050E948405F2
:102CC0006093D1057093D2058093D3059093D4057A
:102CD0006093C8057093C9058093CA059093CB058E
:102CE000C093CC05C093D50587E00E944B0C892B7F
:102CF00051F582E090E00E94AD1383E090E00E94E5
:102D0000AD131092CD051092CE051092CF05109202
:102D1000D0051092C4051092C5051092C6051092F8
:102D2000C7051092D1051092D2051092D3051092CA
:102D3000D4051092C8051092C9051092CA051092C8
:102D4000CB05C093D705D801F7011D923197E9F75C
:102D50001092E1061092E006D092E306C092E206DD
:102D60008091D705882329F087E695E00E945308D3
:102D700054C081E995E00E9453088091D5058823CD
:102D800079F00E9484058090D1059090D205A090A2
:102D9000D305B090D405681979098A099B0908C040
:102DA0006091CD057091CE058091CF059091D005B1
:102DB0000E948B1820E030E04AE754E40E94EA17B2
:102DC00043E00E94650880EA95E00E9453088091E4
:102DD000CC05882379F00E9484058090C8059090E6
:102DE000C905A090CA05B090CB05681979098A0970
:102DF0009B0908C06091C4057091C5058091C60506
:102E00009091C7050E948B1820E030E04AE754E417
:102E10000E94EA1743E00E9465080E94CB070E94C7
:102E20004F0741CFEBE2F6E01382128288EE93E087
:102E3000A0E0B0E084839583A683B78328E035E0E3
:102E40003183208325EC30E03587248724EC30E083
:102E50003787268720EC30E0318B208B21EC30E067
:102E6000338B228B22EC30E0358B248B26EC30E048
:102E7000378B268B118E128E138E148EE8ECF6E0B3
:102E80001382128284839583A683B7838AE195E0B7
:102E900091838083E4EDF6E01382128220E830E033
:102EA0003583248380E490E097838683318720876D
:102EB00093878287168A158614861786168681E080
:102EC000858B848B2FEF3FEF338B228B318B208BC5
:102ED000878B108E128E118E8CE295E09183808309
:102EE0008FEF858F81A3878F868F84E080A30895DD
:102EF0005058BB27AA270E9490170C9403190E94D0
:102F0000F51838F00E94FC1820F039F49F3F19F4AE
:102F100026F40C94F2180EF4E095E7FB0C94EC18F0
:102F2000E92F0E94141958F3BA1762077307840730
:102F3000950720F079F4A6F50C9436190EF4E09577
:102F40000B2EBA2FA02D0B01B90190010C01CA0163
:102F5000A0011124FF27591B99F0593F50F4503E0E
:102F600068F11A16F040A22F232F342F4427585F00
:102F7000F3CF469537952795A795F0405395C9F718
:102F80007EF41F16BA0B620B730B840BBAF09150D0
:102F9000A1F0FF0FBB1F661F771F881FC2F70EC06F
:102FA000BA0F621F731F841F48F487957795679542
:102FB000B795F7959E3F08F0B0CF9395880F08F02E
:102FC0009927EE0F9795879508950E94C81808F4E1
:102FD00081E008950E94FE170C9403190E94FC18CA
:102FE00058F00E94F51840F029F45F3F29F00C9446
:102FF000EC1851110C9437190C94F2180E94141902
:1030000068F39923B1F3552391F3951B550BBB2717
:10301000AA2762177307840738F09F5F5F4F220F5C
:10302000331F441FAA1FA9F335D00E2E3AF0E0E853
:1030300032D091505040E695001CCAF72BD0FE2F9D
:1030400029D0660F771F881FBB1F26173707480731
:10305000AB07B0E809F0BB0B802DBF01FF279358E9
:103060005F4F3AF09E3F510578F00C94EC180C94A9
:1030700037195F3FE4F3983ED4F3869577956795CB
:10308000B795F7959F5FC9F7880F911D969587951E
:1030900097F90895E1E0660F771F881FBB1F62173D
:1030A00073078407BA0720F0621B730B840BBA0BFB
:1030B000EE1F88F7E09508950E941C1988F09F572D
:1030C00098F0B92F9927B751B0F0E1F0660F771F4C
:1030D000881F991F1AF0BA95C9F714C0B13091F042
:1030E0000E943619B1E008950C943619672F782F95
:1030F0008827B85F39F0B93FCCF386957795679507
:10310000B395D9F73EF490958095709561957F4F72
:103110008F4F9F4F0895E89409C097FB3EF4909518
:103120008095709561957F4F8F4F9F4F9923A9F0A0
:10313000F92F96E9BB279395F6958795779567952F
:10314000B795F111F8CFFAF4BB0F11F460FF1BC073
:103150006F5F7F4F8F4F9F4F16C0882311F096E906
:1031600011C0772321F09EE8872F762F05C06623B4
:1031700071F096E8862F70E060E02AF09A95660F6D
:10318000771F881FDAF7880F9695879597F9089526
:10319000990F0008550FAA0BE0E8FEEF1616170668
:1031A000E807F907C0F012161306E407F50798F0D0
:1031B000621B730B840B950B39F40A2661F0232BE9
:1031C000242B252B21F408950A2609F4A140A69565
:1031D0008FEF811D811D089597F99F6780E870E04A
:1031E00060E008959FEF80EC089500240A9416167D
:1031F000170618060906089500240A9412161306E5
:10320000140605060895092E0394000C11F4882372
:1032100052F0BB0F40F4BF2B11F460FF04C06F5F8E
:103220007F4F8F4F9F4F089557FD9058440F551F64
:1032300059F05F3F71F04795880F97FB991F61F038
:103240009F3F79F087950895121613061406551FAF
:10325000F2CF4695F1DF08C0161617061806991F1B
:10326000F1CF86957105610508940895E894BB2710
:1032700066277727CB0197F908950E94C81808F4AC
:103280008FEF08950E9455190C9403190E94F518A8
:1032900038F00E94FC1820F0952311F00C94EC18E3
:1032A0000C94F21811240C9437190E94141970F31D
:1032B000959FC1F3950F50E0551F629FF001729FDB
:1032C000BB27F00DB11D639FAA27F00DB11DAA1FEA
:1032D000649F6627B00DA11D661F829F2227B00D37
:1032E000A11D621F739FB00DA11D621F839FA00DC2
:1032F000611D221F749F3327A00D611D231F849F12
:10330000600D211D822F762F6A2F11249F57504068
:103310009AF0F1F088234AF0EE0FFF1FBB1F661FE3
:10332000771F881F91505040A9F79E3F510580F0AC
:103330000C94EC180C9437195F3FE4F3983ED4F3E7
:10334000869577956795B795F795E7959F5FC1F750
:10335000FE2B880F911D9695879597F908950E94E9
:10336000C818880B990B0895A1E21A2EAA1BBB1B43
:10337000FD010DC0AA1FBB1FEE1FFF1FA217B30741
:10338000E407F50720F0A21BB30BE40BF50B661F57
:10339000771F881F991F1A9469F76095709580951B
:1033A00090959B01AC01BD01CF010895EE0FFF1F69
:1033B0000590F491E02D099481E090E0F8940C944C
:0633C000E119F894FFCFB3
:1033C6000C030C03000000000000000000000000D9
:1033D60000000000000000000000000000000000E7
:1033E60000000000000000000000000000000000D7
:1033F60000000000000000000000000000000000C7
:103406000000008080800000000000000000000036
:1034160000000000008080C0C00000000000000026
:103426000000000000000000000000000000000096
:103436000000000000000000000000000000000086
:103446000000000000000000000000000000000076
:10345600000000000000000080C0E0F0F8FCF8E08A
:103466000000000000000000000000000000000056
:103476000080808080800080800000000080808046
:10348600808000FFFFFF0000000080808080000039
:103496008080000080FFFF80800080800080808028
:1034A600800080800000000000808000008C8E84F8
:1034B600000080F8F8F8800000000000000000001E
:1034C60000000000F0F0F0F0F0F0F0F0F0F0F0F0B6
:1034D600E0E0C08000E0FCFEFFFFFF7FFFFFFFFF94
:1034E600FF0000000000000000000000000000FED9
:1034F600FFC70101010183FFFF00007CFEC7010138
:10350600010183FFFFFF0038FEC78301010183C766
:10351600FFFF000001FFFF010100FFFF070101019E
:1035260000007FFF80000000FFFF7F0000FFFFFF1D
:10353600000001FFFFFF0100000000000000000086
:1035460000000000030F3F7F7FFFFFFFFFFFFFFF2D
:10355600E7C7C78F8F9FBFFFFFC3C0F0FFFFFFFF07
:10356600FFFCFCFCFCFCFCFCFCF8F8F0F0E0C00006
:103576000103030303030103030000000001030327
:10358600030301010301000000010303030301011A
:103596000303000000030300000003030000000013
:1035A60000000001030303030301000000010301FF
:1035B60000000003030100000000000000000000FE
:1035C6000000000000000080C0E0F0F9FFFFFFFFF0
:1035D600FF3F1F0F87C7F7FFFF1F1F3DFCF8F8F8D7
:1035E600F87C7DFFFFFFFFFFFFFFFF7F3F0F070018
:1035F6003030000000000000000000000000000065
:103606000000000000000000FEFEFC0000000000BC
:1036160000000000000000000000000000000000A4
:1036260000E0C00000000000000000000000303094
:103636000000000000000000000000000000000084
:103646000000000000C0FEFFFFFFFFFFFFFFFFFFBF
:103656007F7F3F1F0F071F7FFFFFF8F8FFFFFFFF6A
:10366600FFFEF8E00000000100000000000000007E
:10367600FEFE000000FCFEFC0C06060EFCF8000038
:10368600F0F81C0E0606060CFFFFFF0000FEFE000B
:10369600000000FCFEFC00183C7E66E6CE840000BE
:1036A60006FFFF0606FCFEFC0C0606060000FEFEF4
:1036B6000000C0F8FC4E4646464E7C7840183C76E4
:1036C600E6CECC80000000000000000000000000F4
:1036D600000000000000000001070F1F1F3F3F3FD2
:1036E6003F1F0F0300000000000000000000000064
:1036F6000F0F0000000F0F0F000000000F0F00005B
:1037060003070E0C18180C060F0F0F0000010F0E02
:103716000C180C0F070100040E0C180C0F07000004
:10372600000F0F00000F0F0F0000000000000F0F2A
:1037360000000007070C0C181C0C060600040E0CF3
:10374600180C0F0700000000000000000000000039
:103756000000000000000000000000000000000063
:103766000000000000000000000000000000000053
:103776000000000000000000000000000000000043
:103786000000000000000000000000000000000033
:103796000000000000000000000000000000000023
:1037A6000000000000000000000000000000000013
:1037B6000000000000000000000000000000000003
:1037C6000000000000000000DC0B0D031207290CAE
:1037D600430721073507000000004C121F127C1218
:1037E6008B0D17120312F4110000000087040D035D
:1037F6007C127B1222118B0DB40D8C0DA80D9C0D25
:10380600BB0D8B0D380337036D0EC70F3604190435
:10381600AC034D03000103070F1F3F7F0080C0E08C
:10382600F0F8FCFE202E0020204C6176792074658D
:1038360072633A2020302E3030300A0A0A20205097
:103846007261767920746572633A20302E3030309A
:103856000020204C61767920746572633A2020003E
:103866000A0A0A2020507261767920746572633ADA
:0E38760020006E616E00696E66006F7666005F
:107800000C94343C0C94513C0C94513C0C94513CE1
:107810000C94513C0C94513C0C94513C0C94513CB4
:107820000C94513C0C94513C0C94513C0C94513CA4
:107830000C94513C0C94513C0C94513C0C94513C94
:107840000C94513C0C94513C0C94513C0C94513C84
:107850000C94513C0C94513C0C94513C0C94513C74
:107860000C94513C0C94513C11241FBECFEFD8E036
:10787000DEBFCDBF11E0A0E0B1E0ECE9FFE702C060
:1078800005900D92A230B107D9F712E0A2E0B1E065
:1078900001C01D92AD30B107E1F70E942D3D0C945F
:1078A000CC3F0C94003C982F959595959595959582
:1078B000905D8F708A307CF0282F295A8091C0000B
:1078C00085FFFCCF9093C6008091C00085FFFCCF60
:1078D0002093C6000895282F205DF0CF982F809127
:1078E000C00085FFFCCF9093C6000895EF92FF92F1
:1078F0000F931F93EE24FF2487018091C00087FD22
:1079000017C00894E11CF11C011D111D81E4E8164B
:1079100082E4F8068FE0080780E0180770F3E09132
:107920000401F091050109958091C00087FFE9CF1E
:107930008091C6001F910F91FF90EF9008950E94D3
:10794000763C982F8091C00085FFFCCF9093C600B5
:1079500091362CF490330CF09053892F089597555D
:10796000892F08951F930E949F3C182F0E949F3CCF
:107970001295107F810F1F9108951F93182F882350
:1079800021F00E94763C1150E1F71F9108951F935A
:10799000182F0E94763C803249F0809103018F5F5E
:1079A000809303018530C1F01F9108958091C0003C
:1079B00085FFFCCF84E18093C6008091C00085FFE5
:1079C000FCCF1093C6008091C00085FFFCCF80E102
:1079D0008093C6001F910895E0910401F091050184
:1079E00009951F9108950E94763C803241F0809164
:1079F00003018F5F80930301853081F008958091AA
:107A0000C00085FFFCCF84E18093C6008091C00058
:107A100085FFFCCF80E18093C6000895E0910401CA
:107A2000F09105010995089540E951E08823A1F0FE
:107A30002D9A28EE33E0FA013197F1F721503040CA
:107A4000D1F72D9828EE33E0FA013197F1F7215064
:107A50003040D1F7815061F708953F924F925F9285
:107A60006F927F928F929F92AF92BF92CF92DF924E
:107A7000EF92FF920F931F93CF93DF93000080E16B
:107A80008093C4001092C50088E18093C10086E015
:107A90008093C2005098589A259A81E00E94143D24
:107AA00024E1F22E9EE1E92E85E9D82E0FE0C02ECA
:107AB00010E1B12EAA24A394B1E49B2EA6E58A2E50
:107AC000F2E57F2EE0E26E2E79E4572E63E5462E36
:107AD00050E5352E0E94763C8033B1F18133B9F107
:107AE000803409F46FC0813409F476C0823409F41B
:107AF00085C0853409F488C0803531F1823521F1A3
:107B0000813511F1853509F485C0863509F48DC0BC
:107B1000843609F496C0843709F403C1853709F423
:107B200072C1863709F466C0809103018F5F80932C
:107B30000301853079F6E0910401F0910501099582
:107B40000E94763C803351F60E94F33CC3CF0E94E2
:107B5000763C803249F78091C00085FFFCCFF092DF
:107B6000C6008091C00085FFFCCF9092C600809136
:107B7000C00085FFFCCF8092C6008091C00085FFC9
:107B8000FCCF7092C6008091C00085FFFCCF609250
:107B9000C6008091C00085FFFCCF5092C600809146
:107BA000C00085FFFCCF4092C6008091C00085FFD9
:107BB000FCCF3092C6008091C00085FFFCCFB09210
:107BC000C60088CF0E94763C863808F4BDCF0E945C
:107BD000763C0E94F33C7ECF0E94763C803809F4CC
:107BE0009CC0813809F40BC1823809F43CC1883942
:107BF00009F48FC080E00E94C73C6CCF84E10E94F2
:107C0000BD3C0E94F33C66CF85E00E94BD3C0E94D3
:107C1000F33C60CF0E94763C809306010E94763C44
:107C2000809307010E94F33C55CF0E94763C80333D
:107C300009F41DC183E00E94BD3C80E00E94C73C66
:107C400049CF0E94763C809309020E94763C809343
:107C5000080280910C028E7F80930C020E94763C79
:107C6000853409F415C18091080290910902892B8D
:107C700089F000E010E00E94763CF801E85FFE4FDA
:107C800080830F5F1F4F80910802909109020817AF
:107C9000190788F30E94763C803209F045CF809125
:107CA0000C0280FF01C16091060170910701660F0F
:107CB000771F7093070160930601A0910802B091AD
:107CC00009021097C9F0E8E0F1E09B01AD014E0F09
:107CD0005F1FF999FECF32BD21BD819180BDFA9A17
:107CE000F99A2F5F3F4FE417F50799F76A0F7B1F4B
:107CF00070930701609306018091C00085FFFCCF5F
:107D0000F092C6008091C00085FFFCCFB092C60003
:107D1000E1CE83E00E94C73CDDCE82E00E94C73CFA
:107D2000D9CE0E94763C809309020E94763C8093D3
:107D300008028091060190910701880F991F909386
:107D40000701809306010E94763C853409F4A6C0A1
:107D500080910C028E7F80930C020E94763C8032D0
:107D600009F0B8CE8091C00085FFFCCFF092C6002C
:107D7000609108027091090261157105B9F140E046
:107D800050E080910C02A82FA170B82FB27011C0E2
:107D9000BB2309F45CC0E0910601F0910701319624
:107DA000F0930701E09306014F5F5F4F46175707B7
:107DB000E8F4AA2369F3F999FECF209106013091E6
:107DC000070132BD21BDF89A90B58091C00085FFB2
:107DD000FCCF9093C6002F5F3F4F30930701209355
:107DE00006014F5F5F4F4617570718F38091C00099
:107DF00085FDE5CE8091C00085FFF8CFE0CE81E023
:107E00000E94C73C67CE0E94763C803209F08CCE3F
:107E10008091C00085FFFCCFF092C6008091C00029
:107E200085FFFCCFE092C6008091C00085FFFCCFAB
:107E3000D092C6008091C00085FFFCCFC092C600E2
:107E40008091C00085FFFCCFB092C60043CEE09188
:107E50000601F091070194918091C00085FFFCCF4D
:107E60009093C6009CCF80E10E94C73C33CE0E9415
:107E7000763C0E94763C182F0E94763C112309F430
:107E800083C0113009F484C08FE00E94C73C22CE29
:107E900080910C02816080930C02E5CE80910C02EF
:107EA000816080930C0259CF809107018823880F4D
:107EB000880B8A2180930B02809106019091070123
:107EC000880F991F90930701809306018091080203
:107ED00080FF09C080910802909109020196909359
:107EE000090280930802F894F999FECF1127E091D6
:107EF0000601F0910701C8E0D1E08091080290915D
:107F00000902103091F40091570001700130D9F34B
:107F100003E000935700E89500915700017001308D
:107F2000D9F301E100935700E89509901990009169
:107F3000570001700130D9F301E000935700E89534
:107F40001395103498F011270091570001700130FB
:107F5000D9F305E000935700E895009157000170B0
:107F60000130D9F301E100935700E895329602976A
:107F700009F0C7CF103011F00296E5CF112480919F
:107F8000C00085FFB9CEBCCE8EE10E94C73CA2CD19
:0C7F900085E90E94C73C9ECDF894FFCF0D
:027F9C00800063
:040000030000780081
:00000001FF
